{
  "_format": "hh-sol-artifact-1",
  "contractName": "Issuer",
  "sourceName": "contracts/issuer/Issuer.sol",
  "abi": [
    {
      "inputs": [],
      "stateMutability": "nonpayable",
      "type": "constructor"
    },
    {
      "inputs": [
        {
          "internalType": "address",
          "name": "target",
          "type": "address"
        }
      ],
      "name": "AddressEmptyCode",
      "type": "error"
    },
    {
      "inputs": [
        {
          "internalType": "address",
          "name": "account",
          "type": "address"
        }
      ],
      "name": "AddressInsufficientBalance",
      "type": "error"
    },
    {
      "inputs": [],
      "name": "FailedInnerCall",
      "type": "error"
    },
    {
      "inputs": [],
      "name": "InvalidInitialization",
      "type": "error"
    },
    {
      "inputs": [],
      "name": "NotInitializing",
      "type": "error"
    },
    {
      "inputs": [
        {
          "internalType": "address",
          "name": "owner",
          "type": "address"
        }
      ],
      "name": "OwnableInvalidOwner",
      "type": "error"
    },
    {
      "inputs": [
        {
          "internalType": "address",
          "name": "account",
          "type": "address"
        }
      ],
      "name": "OwnableUnauthorizedAccount",
      "type": "error"
    },
    {
      "inputs": [],
      "name": "ReentrancyGuardReentrantCall",
      "type": "error"
    },
    {
      "inputs": [
        {
          "internalType": "address",
          "name": "token",
          "type": "address"
        }
      ],
      "name": "SafeERC20FailedOperation",
      "type": "error"
    },
    {
      "anonymous": false,
      "inputs": [
        {
          "indexed": false,
          "internalType": "bytes",
          "name": "newPublicKey",
          "type": "bytes"
        },
        {
          "indexed": false,
          "internalType": "string",
          "name": "newBtcAddress",
          "type": "string"
        }
      ],
      "name": "BtcInfoUpdated",
      "type": "event"
    },
    {
      "anonymous": false,
      "inputs": [
        {
          "indexed": true,
          "internalType": "address",
          "name": "account",
          "type": "address"
        },
        {
          "indexed": false,
          "internalType": "uint256",
          "name": "amount",
          "type": "uint256"
        }
      ],
      "name": "ETHWithdrawn",
      "type": "event"
    },
    {
      "anonymous": false,
      "inputs": [
        {
          "indexed": false,
          "internalType": "uint64",
          "name": "version",
          "type": "uint64"
        }
      ],
      "name": "Initialized",
      "type": "event"
    },
    {
      "anonymous": false,
      "inputs": [
        {
          "indexed": true,
          "internalType": "address",
          "name": "account",
          "type": "address"
        },
        {
          "indexed": false,
          "internalType": "uint256",
          "name": "amount",
          "type": "uint256"
        }
      ],
      "name": "InterestWithdrawn",
      "type": "event"
    },
    {
      "anonymous": false,
      "inputs": [
        {
          "indexed": true,
          "internalType": "address",
          "name": "oldLoanContract",
          "type": "address"
        },
        {
          "indexed": true,
          "internalType": "address",
          "name": "newLoanContract",
          "type": "address"
        }
      ],
      "name": "LoanContractUpdated",
      "type": "event"
    },
    {
      "anonymous": false,
      "inputs": [
        {
          "indexed": true,
          "internalType": "address",
          "name": "oldOperator",
          "type": "address"
        },
        {
          "indexed": true,
          "internalType": "address",
          "name": "newOperator",
          "type": "address"
        }
      ],
      "name": "OperatorUpdated",
      "type": "event"
    },
    {
      "anonymous": false,
      "inputs": [
        {
          "indexed": true,
          "internalType": "address",
          "name": "previousOwner",
          "type": "address"
        },
        {
          "indexed": true,
          "internalType": "address",
          "name": "newOwner",
          "type": "address"
        }
      ],
      "name": "OwnershipTransferred",
      "type": "event"
    },
    {
      "anonymous": false,
      "inputs": [
        {
          "indexed": true,
          "internalType": "address",
          "name": "oldStablecoin",
          "type": "address"
        },
        {
          "indexed": true,
          "internalType": "address",
          "name": "newStablecoin",
          "type": "address"
        }
      ],
      "name": "StableCoinUpdated",
      "type": "event"
    },
    {
      "anonymous": false,
      "inputs": [
        {
          "indexed": true,
          "internalType": "address",
          "name": "token",
          "type": "address"
        },
        {
          "indexed": true,
          "internalType": "address",
          "name": "account",
          "type": "address"
        },
        {
          "indexed": false,
          "internalType": "uint256",
          "name": "amount",
          "type": "uint256"
        }
      ],
      "name": "TokenWithdrawn",
      "type": "event"
    },
    {
      "inputs": [],
      "name": "btcAddress",
      "outputs": [
        {
          "internalType": "string",
          "name": "",
          "type": "string"
        }
      ],
      "stateMutability": "view",
      "type": "function"
    },
    {
      "inputs": [],
      "name": "btcPublicKey",
      "outputs": [
        {
          "internalType": "bytes",
          "name": "",
          "type": "bytes"
        }
      ],
      "stateMutability": "view",
      "type": "function"
    },
    {
      "inputs": [
        {
          "internalType": "contract IObsidianOrder",
          "name": "order",
          "type": "address"
        }
      ],
      "name": "closeObsidianOrder",
      "outputs": [],
      "stateMutability": "nonpayable",
      "type": "function"
    },
    {
      "inputs": [
        {
          "internalType": "contract IOrder",
          "name": "order",
          "type": "address"
        }
      ],
      "name": "closeOrder",
      "outputs": [],
      "stateMutability": "nonpayable",
      "type": "function"
    },
    {
      "inputs": [
        {
          "internalType": "uint256",
          "name": "amount",
          "type": "uint256"
        },
        {
          "internalType": "uint256",
          "name": "durationDays",
          "type": "uint256"
        }
      ],
      "name": "createObsidianOrder",
      "outputs": [],
      "stateMutability": "nonpayable",
      "type": "function"
    },
    {
      "inputs": [
        {
          "internalType": "uint256",
          "name": "amount",
          "type": "uint256"
        },
        {
          "internalType": "uint256",
          "name": "durationDays",
          "type": "uint256"
        }
      ],
      "name": "createOrder",
      "outputs": [],
      "stateMutability": "nonpayable",
      "type": "function"
    },
    {
      "inputs": [],
      "name": "getTotalInterest",
      "outputs": [
        {
          "internalType": "uint256",
          "name": "",
          "type": "uint256"
        }
      ],
      "stateMutability": "view",
      "type": "function"
    },
    {
      "inputs": [
        {
          "internalType": "contract IStableCoin",
          "name": "_token",
          "type": "address"
        },
        {
          "internalType": "bytes",
          "name": "_btcPublicKey",
          "type": "bytes"
        },
        {
          "internalType": "string",
          "name": "_btcAddress",
          "type": "string"
        },
        {
          "internalType": "address",
          "name": "_operator",
          "type": "address"
        },
        {
          "internalType": "address",
          "name": "_loanContract",
          "type": "address"
        }
      ],
      "name": "initialize",
      "outputs": [],
      "stateMutability": "nonpayable",
      "type": "function"
    },
    {
      "inputs": [],
      "name": "loanContract",
      "outputs": [
        {
          "internalType": "address",
          "name": "",
          "type": "address"
        }
      ],
      "stateMutability": "view",
      "type": "function"
    },
    {
      "inputs": [],
      "name": "operator",
      "outputs": [
        {
          "internalType": "address",
          "name": "",
          "type": "address"
        }
      ],
      "stateMutability": "view",
      "type": "function"
    },
    {
      "inputs": [],
      "name": "owner",
      "outputs": [
        {
          "internalType": "address",
          "name": "",
          "type": "address"
        }
      ],
      "stateMutability": "view",
      "type": "function"
    },
    {
      "inputs": [],
      "name": "renounceOwnership",
      "outputs": [],
      "stateMutability": "nonpayable",
      "type": "function"
    },
    {
      "inputs": [
        {
          "internalType": "bytes",
          "name": "_btcPublicKey",
          "type": "bytes"
        },
        {
          "internalType": "string",
          "name": "_btcAddress",
          "type": "string"
        }
      ],
      "name": "setBtcPublicKeyAndAddress",
      "outputs": [],
      "stateMutability": "nonpayable",
      "type": "function"
    },
    {
      "inputs": [
        {
          "internalType": "address",
          "name": "_operator",
          "type": "address"
        }
      ],
      "name": "setOperator",
      "outputs": [],
      "stateMutability": "nonpayable",
      "type": "function"
    },
    {
      "inputs": [
        {
          "internalType": "address",
          "name": "order",
          "type": "address"
        },
        {
          "internalType": "bytes",
          "name": "txData",
          "type": "bytes"
        },
        {
          "internalType": "uint32",
          "name": "blockHeight",
          "type": "uint32"
        },
        {
          "components": [
            {
              "internalType": "bytes32[]",
              "name": "proof",
              "type": "bytes32[]"
            },
            {
              "internalType": "bytes32",
              "name": "root",
              "type": "bytes32"
            },
            {
              "internalType": "bytes32",
              "name": "leaf",
              "type": "bytes32"
            },
            {
              "internalType": "bool[]",
              "name": "flags",
              "type": "bool[]"
            }
          ],
          "internalType": "struct MerkleProofData",
          "name": "merkleProof",
          "type": "tuple"
        }
      ],
      "name": "submitRegularUnlockTransferProof",
      "outputs": [],
      "stateMutability": "nonpayable",
      "type": "function"
    },
    {
      "inputs": [],
      "name": "token",
      "outputs": [
        {
          "internalType": "contract IStableCoin",
          "name": "",
          "type": "address"
        }
      ],
      "stateMutability": "view",
      "type": "function"
    },
    {
      "inputs": [
        {
          "internalType": "address",
          "name": "newOwner",
          "type": "address"
        }
      ],
      "name": "transferOwnership",
      "outputs": [],
      "stateMutability": "nonpayable",
      "type": "function"
    },
    {
      "inputs": [
        {
          "internalType": "address payable",
          "name": "recipient",
          "type": "address"
        }
      ],
      "name": "withdrawETH",
      "outputs": [],
      "stateMutability": "nonpayable",
      "type": "function"
    },
    {
      "inputs": [
        {
          "internalType": "address",
          "name": "account",
          "type": "address"
        }
      ],
      "name": "withdrawInterest",
      "outputs": [],
      "stateMutability": "nonpayable",
      "type": "function"
    },
    {
      "inputs": [
        {
          "internalType": "address",
          "name": "_token",
          "type": "address"
        },
        {
          "internalType": "address",
          "name": "recipient",
          "type": "address"
        }
      ],
      "name": "withdrawToken",
      "outputs": [],
      "stateMutability": "nonpayable",
      "type": "function"
    },
    {
      "stateMutability": "payable",
      "type": "receive"
    }
  ],
  "bytecode": "0x60806040523480156200001157600080fd5b506200001c62000022565b620000d6565b7ff0c57e16840df040f15088dc2f81fe391c3923bec73e23a9662efc9c229c6a00805468010000000000000000900460ff1615620000735760405163f92ee8a960e01b815260040160405180910390fd5b80546001600160401b0390811614620000d35780546001600160401b0319166001600160401b0390811782556040519081527fc7f505b2f371ae2175ee4913f4499e1f2633a7b5936321eed1cdaeb6115181d29060200160405180910390a15b50565b6129f280620000e66000396000f3fe6080604052600436106101235760003560e01c806379109baa116100a0578063af45f32211610064578063af45f32214610349578063b3ab15fb14610369578063f2fde38b14610389578063f7d76ae5146103a9578063fc0c546a146103be57600080fd5b806379109baa1461028c57806382e07d7a146102ac5780638da5cb5b146102cc57806390e7212714610309578063929de4931461032957600080fd5b8063468c9185116100e7578063468c9185146101f7578063570ca735146102175780635ae3e77114610237578063690d832014610257578063715018a61461027757600080fd5b806309f47e5e1461012f5780630b60365c1461015a578063165b92c81461017d578063253f284b1461019f5780633aeac4e1146101d757600080fd5b3661012a57005b600080fd5b34801561013b57600080fd5b506101446103de565b60405161015191906121ab565b60405180910390f35b34801561016657600080fd5b5061016f61046c565b604051908152602001610151565b34801561018957600080fd5b5061019d610198366004612261565b6104fd565b005b3480156101ab57600080fd5b506004546101bf906001600160a01b031681565b6040516001600160a01b039091168152602001610151565b3480156101e357600080fd5b5061019d6101f23660046122da565b61055c565b34801561020357600080fd5b5061019d610212366004612313565b610709565b34801561022357600080fd5b506003546101bf906001600160a01b031681565b34801561024357600080fd5b5061019d6102523660046123b1565b610928565b34801561026357600080fd5b5061019d6102723660046123b1565b610b47565b34801561028357600080fd5b5061019d610c0a565b34801561029857600080fd5b5061019d6102a73660046123ce565b610c1e565b3480156102b857600080fd5b5061019d6102c73660046123ce565b610e36565b3480156102d857600080fd5b507f9016d09d72d40fdae2fd8ceac6b6234c7706214fd39c1cd1e609a0528c199300546001600160a01b03166101bf565b34801561031557600080fd5b5061019d6103243660046123b1565b610fff565b34801561033557600080fd5b5061019d6103443660046123f0565b61151a565b34801561035557600080fd5b5061019d6103643660046123b1565b6118e5565b34801561037557600080fd5b5061019d6103843660046123b1565b611ae0565b34801561039557600080fd5b5061019d6103a43660046123b1565b611b60565b3480156103b557600080fd5b50610144611b9b565b3480156103ca57600080fd5b506000546101bf906001600160a01b031681565b600180546103eb90612489565b80601f016020809104026020016040519081016040528092919081815260200182805461041790612489565b80156104645780601f1061043957610100808354040283529160200191610464565b820191906000526020600020905b81548152906001019060200180831161044757829003601f168201915b505050505081565b600080546040516370a0823160e01b8152306004820152829182916001600160a01b03909116906370a0823190602401602060405180830381865afa1580156104b9573d6000803e3d6000fd5b505050506040513d601f19601f820116820180604052508101906104dd91906124bd565b90506005548110156104f1578091506104f7565b60055491505b50919050565b610505611ba8565b60016105118382612524565b50600261051e8282612524565b507fe1278b084174d7bf265df68c7c4399f4ef52a1226b851d8f2cf4304e6254a12582826040516105509291906125e4565b60405180910390a15050565b610564611ba8565b61056c611c03565b6000546001600160a01b03908116908316036105cf5760405162461bcd60e51b815260206004820152601760248201527f4973737565723a2063616e6e6f7420776974686472617700000000000000000060448201526064015b60405180910390fd5b6040516370a0823160e01b81523060048201526000906001600160a01b038416906370a0823190602401602060405180830381865afa158015610616573d6000803e3d6000fd5b505050506040513d601f19601f8201168201806040525081019061063a91906124bd565b90506000811161068c5760405162461bcd60e51b815260206004820152601d60248201527f4973737565723a206e6f20746f6b656e7320746f20776974686472617700000060448201526064016105c6565b6106a06001600160a01b0384168383611c3b565b816001600160a01b0316836001600160a01b03167f8210728e7c071f615b840ee026032693858fbcd5e5359e67e438c890f59e5620836040516106e591815260200190565b60405180910390a350610705600160008051602061299d83398151915255565b5050565b7ff0c57e16840df040f15088dc2f81fe391c3923bec73e23a9662efc9c229c6a008054600160401b810460ff16159067ffffffffffffffff1660008115801561074f5750825b905060008267ffffffffffffffff16600114801561076c5750303b155b90508115801561077a575080155b156107985760405163f92ee8a960e01b815260040160405180910390fd5b845467ffffffffffffffff1916600117855583156107c257845460ff60401b1916600160401b1785555b6107cb33611cac565b6107d3611cbd565b6001600160a01b038a16158015906107f357506001600160a01b03871615155b801561080757506001600160a01b03861615155b6108235760405162461bcd60e51b81526004016105c690612612565b60008951118015610835575060008851115b6108715760405162461bcd60e51b815260206004820152600d60248201526c4973737565723a20656d70747960981b60448201526064016105c6565b600080546001600160a01b0319166001600160a01b038c1617905560016108988a82612524565b5060026108a58982612524565b50600380546001600160a01b03808a166001600160a01b0319928316179092556004805492891692909116919091179055831561091c57845460ff60401b19168555604051600181527fc7f505b2f371ae2175ee4913f4499e1f2633a7b5936321eed1cdaeb6115181d29060200160405180910390a15b50505050505050505050565b6003546001600160a01b031633146109525760405162461bcd60e51b81526004016105c690612640565b61095a611c03565b6001600160a01b0381166109805760405162461bcd60e51b81526004016105c690612612565b600080546040516370a0823160e01b81523060048201526001600160a01b03909116906370a0823190602401602060405180830381865afa1580156109c9573d6000803e3d6000fd5b505050506040513d601f19601f820116820180604052508101906109ed91906124bd565b9050816001600160a01b0316632d8dcef16040518163ffffffff1660e01b8152600401600060405180830381600087803b158015610a2a57600080fd5b505af1158015610a3e573d6000803e3d6000fd5b5050600080546040516370a0823160e01b81523060048201529193506001600160a01b031691506370a0823190602401602060405180830381865afa158015610a8b573d6000803e3d6000fd5b505050506040513d601f19601f82011682018060405250810190610aaf91906124bd565b90506000610abd8383612698565b90508015610b2a57600054604051632770a7eb60e21b81526001600160a01b0390911690639dc29fac90610af790309085906004016126ab565b600060405180830381600087803b158015610b1157600080fd5b505af1158015610b25573d6000803e3d6000fd5b505050505b505050610b44600160008051602061299d83398151915255565b50565b610b4f611ba8565b610b57611c03565b4780610ba55760405162461bcd60e51b815260206004820152601a60248201527f4973737565723a206e6f2045544820746f20776974686472617700000000000060448201526064016105c6565b610baf8282611ccd565b816001600160a01b03167f94b2de810873337ed265c5f8cf98c9cffefa06b8607f9a2f1fbaebdfbcfbef1c82604051610bea91815260200190565b60405180910390a250610b44600160008051602061299d83398151915255565b610c12611ba8565b610c1c6000611d64565b565b610c26611c03565b6004805460008054604051635903513760e11b81529384018590526001600160a01b03908116602485015260448401869052909291169063b206a26e90606401606060405180830381865afa158015610c83573d6000803e3d6000fd5b505050506040513d601f19601f82011682018060405250810190610ca791906126c4565b506000549092506001600160a01b031690506340c10f1930610cc984876126f2565b6040518363ffffffff1660e01b8152600401610ce69291906126ab565b600060405180830381600087803b158015610d0057600080fd5b505af1158015610d14573d6000803e3d6000fd5b50506000546004546001600160a01b03918216935063095ea7b3925016610d3b84876126f2565b6040518363ffffffff1660e01b8152600401610d589291906126ab565b6020604051808303816000875af1158015610d77573d6000803e3d6000fd5b505050506040513d601f19601f82011682018060405250810190610d9b9190612713565b506004805460005460405163fec6413f60e01b81526001600160a01b039283169363fec6413f93610dda931691889187918991600291600191016127ad565b6020604051808303816000875af1158015610df9573d6000803e3d6000fd5b505050506040513d601f19601f82011682018060405250810190610e1d91906127ff565b5050610705600160008051602061299d83398151915255565b610e3e611c03565b6004805460008054604051635903513760e11b81529384018590526001600160a01b03908116602485015260448401869052909291169063b206a26e90606401606060405180830381865afa158015610e9b573d6000803e3d6000fd5b505050506040513d601f19601f82011682018060405250810190610ebf91906126c4565b506000549092506001600160a01b031690506340c10f1930610ee184876126f2565b6040518363ffffffff1660e01b8152600401610efe9291906126ab565b600060405180830381600087803b158015610f1857600080fd5b505af1158015610f2c573d6000803e3d6000fd5b50506000546004546001600160a01b03918216935063095ea7b3925016610f5384876126f2565b6040518363ffffffff1660e01b8152600401610f709291906126ab565b6020604051808303816000875af1158015610f8f573d6000803e3d6000fd5b505050506040513d601f19601f82011682018060405250810190610fb39190612713565b5060048054600054604051630b69142d60e31b81526001600160a01b03918216938101939093526024830186905260448301849052606483018590521690635b48a16890608401610dda565b6003546001600160a01b031633146110295760405162461bcd60e51b81526004016105c690612640565b611031611c03565b6001600160a01b0381166110575760405162461bcd60e51b81526004016105c690612612565b600080546040516370a0823160e01b81523060048201526001600160a01b03909116906370a0823190602401602060405180830381865afa1580156110a0573d6000803e3d6000fd5b505050506040513d601f19601f820116820180604052508101906110c491906124bd565b9050816001600160a01b0316632d8dcef16040518163ffffffff1660e01b8152600401600060405180830381600087803b15801561110157600080fd5b505af1158015611115573d6000803e3d6000fd5b5050600080546040516370a0823160e01b81523060048201529193506001600160a01b031691506370a0823190602401602060405180830381865afa158015611162573d6000803e3d6000fd5b505050506040513d601f19601f8201168201806040525081019061118691906124bd565b905060006111948383612698565b90508060000361128657836001600160a01b031663ce7f50186040518163ffffffff1660e01b8152600401602060405180830381865afa1580156111dc573d6000803e3d6000fd5b505050506040513d601f19601f8201168201806040525081019061120091906124bd565b6005541061128157836001600160a01b031663ce7f50186040518163ffffffff1660e01b8152600401602060405180830381865afa158015611246573d6000803e3d6000fd5b505050506040513d601f19601f8201168201806040525081019061126a91906124bd565b6005600082825461127b9190612698565b90915550505b610b2a565b836001600160a01b031663eec7faa16040518163ffffffff1660e01b8152600401602060405180830381865afa1580156112c4573d6000803e3d6000fd5b505050506040513d601f19601f820116820180604052508101906112e891906124bd565b81036114005760008054906101000a90046001600160a01b03166001600160a01b0316639dc29fac30866001600160a01b031663eec7faa16040518163ffffffff1660e01b8152600401602060405180830381865afa15801561134f573d6000803e3d6000fd5b505050506040513d601f19601f8201168201806040525081019061137391906124bd565b6040518363ffffffff1660e01b81526004016113909291906126ab565b600060405180830381600087803b1580156113aa57600080fd5b505af11580156113be573d6000803e3d6000fd5b50505050836001600160a01b031663ce7f50186040518163ffffffff1660e01b8152600401602060405180830381865afa1580156111dc573d6000803e3d6000fd5b836001600160a01b031663eec7faa16040518163ffffffff1660e01b8152600401602060405180830381865afa15801561143e573d6000803e3d6000fd5b505050506040513d601f19601f8201168201806040525081019061146291906124bd565b8111156114d257600054604051632770a7eb60e21b81526001600160a01b0390911690639dc29fac9061149b90309085906004016126ab565b600060405180830381600087803b1580156114b557600080fd5b505af11580156114c9573d6000803e3d6000fd5b50505050610b2a565b60405162461bcd60e51b815260206004820152601a60248201527f4973737565723a20696e76616c696420646966666572656e636500000000000060448201526064016105c6565b611522611c03565b6001600160a01b0384166115485760405162461bcd60e51b81526004016105c690612612565b600061155385611dd5565b905060028160028111156115695761156961281c565b0361171957604051632f0a2e5360e11b815285906001600160a01b03821690635e145ca6906115a090889088908890600401612882565b600060405180830381600087803b1580156115ba57600080fd5b505af11580156115ce573d6000803e3d6000fd5b5050505060008054906101000a90046001600160a01b03166001600160a01b0316639dc29fac30836001600160a01b03166379ddeee16040518163ffffffff1660e01b8152600401602060405180830381865afa158015611633573d6000803e3d6000fd5b505050506040513d601f19601f8201168201806040525081019061165791906124bd565b846001600160a01b031663eec7faa16040518163ffffffff1660e01b8152600401602060405180830381865afa158015611695573d6000803e3d6000fd5b505050506040513d601f19601f820116820180604052508101906116b991906124bd565b6116c391906126f2565b6040518363ffffffff1660e01b81526004016116e09291906126ab565b600060405180830381600087803b1580156116fa57600080fd5b505af115801561170e573d6000803e3d6000fd5b5050505050506118c8565b604051632f0a2e5360e11b815285906001600160a01b03821690635e145ca69061174b90889088908890600401612882565b600060405180830381600087803b15801561176557600080fd5b505af1158015611779573d6000803e3d6000fd5b505050506000816001600160a01b031663eec7faa16040518163ffffffff1660e01b8152600401602060405180830381865afa1580156117bd573d6000803e3d6000fd5b505050506040513d601f19601f820116820180604052508101906117e191906124bd565b90506117ec87611e99565b1561186057816001600160a01b03166379ddeee16040518163ffffffff1660e01b8152600401602060405180830381865afa15801561182f573d6000803e3d6000fd5b505050506040513d601f19601f8201168201806040525081019061185391906124bd565b61185d90826126f2565b90505b600054604051632770a7eb60e21b81526001600160a01b0390911690639dc29fac9061189290309085906004016126ab565b600060405180830381600087803b1580156118ac57600080fd5b505af11580156118c0573d6000803e3d6000fd5b505050505050505b6118df600160008051602061299d83398151915255565b50505050565b6118ed611ba8565b6118f5611c03565b6000600554116119475760405162461bcd60e51b815260206004820152601f60248201527f4973737565723a206e6f20696e74657265737420746f2077697468647261770060448201526064016105c6565b600080546040516370a0823160e01b81523060048201526001600160a01b03909116906370a0823190602401602060405180830381865afa158015611990573d6000803e3d6000fd5b505050506040513d601f19601f820116820180604052508101906119b491906124bd565b6005549091506000818310156119f0576119ce8383612698565b6005555060005482906119eb906001600160a01b03168583611c3b565b611a0f565b5060006005819055548190611a0f906001600160a01b03168583611c3b565b81831115611a83576000546001600160a01b0316639dc29fac30611a338587612698565b6040518363ffffffff1660e01b8152600401611a509291906126ab565b600060405180830381600087803b158015611a6a57600080fd5b505af1158015611a7e573d6000803e3d6000fd5b505050505b836001600160a01b03167f0fb2ffd41401cdebe76e1a7cdcaed20ad31cf8d215f8209b73ec00525cb8d68682604051611abe91815260200190565b60405180910390a2505050610b44600160008051602061299d83398151915255565b611ae8611ba8565b6001600160a01b038116611b0e5760405162461bcd60e51b81526004016105c690612612565b600380546001600160a01b038381166001600160a01b0319831681179093556040519116919082907ffbe5b6cbafb274f445d7fed869dc77a838d8243a22c460de156560e8857cad0390600090a35050565b611b68611ba8565b6001600160a01b038116611b9257604051631e4fbdf760e01b8152600060048201526024016105c6565b610b4481611d64565b600280546103eb90612489565b33611bda7f9016d09d72d40fdae2fd8ceac6b6234c7706214fd39c1cd1e609a0528c199300546001600160a01b031690565b6001600160a01b031614610c1c5760405163118cdaa760e01b81523360048201526024016105c6565b60008051602061299d833981519152805460011901611c3557604051633ee5aeb560e01b815260040160405180910390fd5b60029055565b611c9383846001600160a01b031663a9059cbb8585604051602401611c619291906126ab565b604051602081830303815290604052915060e01b6020820180516001600160e01b038381831617835250505050611f64565b505050565b600160008051602061299d83398151915255565b611cb4611fc7565b610b4481612010565b611cc5611fc7565b610c1c612018565b80471015611cf05760405163cd78605960e01b81523060048201526024016105c6565b6000826001600160a01b03168260405160006040518083038185875af1925050503d8060008114611d3d576040519150601f19603f3d011682016040523d82523d6000602084013e611d42565b606091505b5050905080611c9357604051630a12f52160e11b815260040160405180910390fd5b7f9016d09d72d40fdae2fd8ceac6b6234c7706214fd39c1cd1e609a0528c19930080546001600160a01b031981166001600160a01b03848116918217845560405192169182907f8be0079c531659141344cd1fd0a4f28419497f9722a3daafe3b4186f6b6457e090600090a3505050565b60408051600481526024810182526020810180516001600160e01b0316636f17591f60e01b1790529051600091829182916001600160a01b03861691611e1b919061295f565b600060405180830381855afa9150503d8060008114611e56576040519150601f19603f3d011682016040523d82523d6000602084013e611e5b565b606091505b5091509150811580611e6e575060208151105b15611e7d575060019392505050565b80806020019051810190611e91919061297b565b949350505050565b60408051600481526024810182526020810180516001600160e01b03166301e2abd560e01b1790529051600091829182916001600160a01b03861691611edf919061295f565b600060405180830381855afa9150503d8060008114611f1a576040519150601f19603f3d011682016040523d82523d6000602084013e611f1f565b606091505b5091509150811580611f32575060208151105b15611f41575060009392505050565b600081806020019051810190611f5791906124bd565b6003111595945050505050565b6000611f796001600160a01b03841683612020565b90508051600014158015611f9e575080806020019051810190611f9c9190612713565b155b15611c9357604051635274afe760e01b81526001600160a01b03841660048201526024016105c6565b7ff0c57e16840df040f15088dc2f81fe391c3923bec73e23a9662efc9c229c6a0054600160401b900460ff16610c1c57604051631afcd79f60e31b815260040160405180910390fd5b611b68611fc7565b611c98611fc7565b606061202e83836000612037565b90505b92915050565b60608147101561205c5760405163cd78605960e01b81523060048201526024016105c6565b600080856001600160a01b03168486604051612078919061295f565b60006040518083038185875af1925050503d80600081146120b5576040519150601f19603f3d011682016040523d82523d6000602084013e6120ba565b606091505b50915091506120ca8683836120d6565b925050505b9392505050565b6060826120eb576120e682612132565b6120cf565b815115801561210257506001600160a01b0384163b155b1561212b57604051639996b31560e01b81526001600160a01b03851660048201526024016105c6565b50806120cf565b8051156121425780518082602001fd5b604051630a12f52160e11b815260040160405180910390fd5b60005b8381101561217657818101518382015260200161215e565b50506000910152565b6000815180845261219781602086016020860161215b565b601f01601f19169290920160200192915050565b60208152600061202e602083018461217f565b634e487b7160e01b600052604160045260246000fd5b600082601f8301126121e557600080fd5b813567ffffffffffffffff80821115612200576122006121be565b604051601f8301601f19908116603f01168101908282118183101715612228576122286121be565b8160405283815286602085880101111561224157600080fd5b836020870160208301376000602085830101528094505050505092915050565b6000806040838503121561227457600080fd5b823567ffffffffffffffff8082111561228c57600080fd5b612298868387016121d4565b935060208501359150808211156122ae57600080fd5b506122bb858286016121d4565b9150509250929050565b6001600160a01b0381168114610b4457600080fd5b600080604083850312156122ed57600080fd5b82356122f8816122c5565b91506020830135612308816122c5565b809150509250929050565b600080600080600060a0868803121561232b57600080fd5b8535612336816122c5565b9450602086013567ffffffffffffffff8082111561235357600080fd5b61235f89838a016121d4565b9550604088013591508082111561237557600080fd5b50612382888289016121d4565b9350506060860135612393816122c5565b915060808601356123a3816122c5565b809150509295509295909350565b6000602082840312156123c357600080fd5b81356120cf816122c5565b600080604083850312156123e157600080fd5b50508035926020909101359150565b6000806000806080858703121561240657600080fd5b8435612411816122c5565b9350602085013567ffffffffffffffff8082111561242e57600080fd5b61243a888389016121d4565b94506040870135915063ffffffff8216821461245557600080fd5b9092506060860135908082111561246b57600080fd5b5085016080818803121561247e57600080fd5b939692955090935050565b600181811c9082168061249d57607f821691505b6020821081036104f757634e487b7160e01b600052602260045260246000fd5b6000602082840312156124cf57600080fd5b5051919050565b601f821115611c9357600081815260208120601f850160051c810160208610156124fd5750805b601f850160051c820191505b8181101561251c57828155600101612509565b505050505050565b815167ffffffffffffffff81111561253e5761253e6121be565b6125528161254c8454612489565b846124d6565b602080601f831160018114612587576000841561256f5750858301515b600019600386901b1c1916600185901b17855561251c565b600085815260208120601f198616915b828110156125b657888601518255948401946001909101908401612597565b50858210156125d45787850151600019600388901b60f8161c191681555b5050505050600190811b01905550565b6040815260006125f7604083018561217f565b8281036020840152612609818561217f565b95945050505050565b6020808252601490820152734973737565723a207a65726f206164647265737360601b604082015260600190565b60208082526022908201527f4973737565723a2063616c6c6572206973206e6f7420746865206f706572617460408201526137b960f11b606082015260800190565b634e487b7160e01b600052601160045260246000fd5b8181038181111561203157612031612682565b6001600160a01b03929092168252602082015260400190565b6000806000606084860312156126d957600080fd5b8351925060208401519150604084015190509250925092565b8082018082111561203157612031612682565b8015158114610b4457600080fd5b60006020828403121561272557600080fd5b81516120cf81612705565b6000815461273d81612489565b80855260206001838116801561275a5760018114612774576127a2565b60ff1985168884015283151560051b8801830195506127a2565b866000528260002060005b8581101561279a5781548a820186015290830190840161277f565b890184019650505b505050505092915050565b60018060a01b038716815285602082015284604082015283606082015260c0608082015260006127e060c0830185612730565b82810360a08401526127f28185612730565b9998505050505050505050565b60006020828403121561281157600080fd5b81516120cf816122c5565b634e487b7160e01b600052602160045260246000fd5b6000808335601e1984360301811261284957600080fd5b830160208101925035905067ffffffffffffffff81111561286957600080fd5b8060051b360382131561287b57600080fd5b9250929050565b606081526000612895606083018661217f565b602063ffffffff86168185015283820360408501526128b48586612832565b608080855284018190526001600160fb1b038111156128d257600080fd5b60051b808260a08601378683013583850152604080880135908501528301905060a081016129036060880188612832565b60a086850301606087015282955080835260c084019550819350600092505b80831015612950578335915061293782612705565b8115158652948401949284019260019290920191612922565b50939998505050505050505050565b6000825161297181846020870161215b565b9190910192915050565b60006020828403121561298d57600080fd5b8151600381106120cf57600080fdfe9b779b17422d0df92223018b32b4d1fa46e071723d6817e2486d003becc55f00a26469706673582212208c7d63649887732d559334f62acabedd527fe9b1ec52294bb6f4d7fa03d0856b64736f6c63430008140033",
  "linkReferences": {},
  "deployedLinkReferences": {}
}