{
  "_format": "hh-sol-artifact-1",
  "contractName": "ObsidianOrder",
  "sourceName": "contracts/obsidian/ObsidianOrder.sol",
  "abi": [
    {
      "inputs": [],
      "stateMutability": "nonpayable",
      "type": "constructor"
    },
    {
      "inputs": [
        {
          "internalType": "address",
          "name": "target",
          "type": "address"
        }
      ],
      "name": "AddressEmptyCode",
      "type": "error"
    },
    {
      "inputs": [
        {
          "internalType": "address",
          "name": "account",
          "type": "address"
        }
      ],
      "name": "AddressInsufficientBalance",
      "type": "error"
    },
    {
      "inputs": [],
      "name": "AlreadyCreated",
      "type": "error"
    },
    {
      "inputs": [],
      "name": "EmptyBtcAddress",
      "type": "error"
    },
    {
      "inputs": [],
      "name": "ErrorStatus",
      "type": "error"
    },
    {
      "inputs": [],
      "name": "FailedInnerCall",
      "type": "error"
    },
    {
      "inputs": [],
      "name": "InvalidDeadline",
      "type": "error"
    },
    {
      "inputs": [],
      "name": "InvalidInitialization",
      "type": "error"
    },
    {
      "inputs": [],
      "name": "InvalidParameters",
      "type": "error"
    },
    {
      "inputs": [],
      "name": "InvalidUnlockAmount",
      "type": "error"
    },
    {
      "inputs": [],
      "name": "InvalidVersion",
      "type": "error"
    },
    {
      "inputs": [],
      "name": "LenderOnly",
      "type": "error"
    },
    {
      "inputs": [],
      "name": "NoOpen",
      "type": "error"
    },
    {
      "inputs": [],
      "name": "NoPermission",
      "type": "error"
    },
    {
      "inputs": [],
      "name": "NotCloseable",
      "type": "error"
    },
    {
      "inputs": [],
      "name": "NotInitializing",
      "type": "error"
    },
    {
      "inputs": [],
      "name": "NotRenewalOperator",
      "type": "error"
    },
    {
      "inputs": [],
      "name": "OnlyBorrower",
      "type": "error"
    },
    {
      "inputs": [],
      "name": "OrderClosedAlready",
      "type": "error"
    },
    {
      "inputs": [],
      "name": "OrderTimedOut",
      "type": "error"
    },
    {
      "inputs": [
        {
          "internalType": "address",
          "name": "owner",
          "type": "address"
        }
      ],
      "name": "OwnableInvalidOwner",
      "type": "error"
    },
    {
      "inputs": [
        {
          "internalType": "address",
          "name": "account",
          "type": "address"
        }
      ],
      "name": "OwnableUnauthorizedAccount",
      "type": "error"
    },
    {
      "inputs": [],
      "name": "ReentrancyGuardReentrantCall",
      "type": "error"
    },
    {
      "inputs": [
        {
          "internalType": "address",
          "name": "token",
          "type": "address"
        }
      ],
      "name": "SafeERC20FailedOperation",
      "type": "error"
    },
    {
      "inputs": [],
      "name": "TimelockOverflow",
      "type": "error"
    },
    {
      "anonymous": false,
      "inputs": [],
      "name": "BorrowSuccessful",
      "type": "event"
    },
    {
      "anonymous": false,
      "inputs": [
        {
          "indexed": false,
          "internalType": "uint256",
          "name": "acutalAmount",
          "type": "uint256"
        },
        {
          "indexed": false,
          "internalType": "enum OrderStatus",
          "name": "status",
          "type": "uint8"
        }
      ],
      "name": "BorrowerBTCTransferProofSubmitted",
      "type": "event"
    },
    {
      "anonymous": false,
      "inputs": [
        {
          "indexed": false,
          "internalType": "uint64",
          "name": "version",
          "type": "uint64"
        }
      ],
      "name": "Initialized",
      "type": "event"
    },
    {
      "anonymous": false,
      "inputs": [
        {
          "indexed": false,
          "internalType": "bytes32",
          "name": "zkTxHash",
          "type": "bytes32"
        },
        {
          "indexed": false,
          "internalType": "enum OrderStatus",
          "name": "status",
          "type": "uint8"
        }
      ],
      "name": "LenderBTCTransferProofSubmitted",
      "type": "event"
    },
    {
      "anonymous": false,
      "inputs": [
        {
          "indexed": true,
          "internalType": "address",
          "name": "order",
          "type": "address"
        },
        {
          "indexed": true,
          "internalType": "bytes32",
          "name": "txId",
          "type": "bytes32"
        },
        {
          "indexed": true,
          "internalType": "uint256",
          "name": "requestId",
          "type": "uint256"
        },
        {
          "indexed": false,
          "internalType": "address",
          "name": "submitter",
          "type": "address"
        },
        {
          "indexed": false,
          "internalType": "uint256",
          "name": "amount",
          "type": "uint256"
        },
        {
          "indexed": false,
          "internalType": "uint256",
          "name": "totalRenewalAmount",
          "type": "uint256"
        },
        {
          "indexed": false,
          "internalType": "uint32",
          "name": "blockHeight",
          "type": "uint32"
        },
        {
          "indexed": false,
          "internalType": "string",
          "name": "obsidianBtcAddress",
          "type": "string"
        }
      ],
      "name": "ObsidianRenewalTopUpProofSubmitted",
      "type": "event"
    },
    {
      "anonymous": false,
      "inputs": [],
      "name": "OrderClosed",
      "type": "event"
    },
    {
      "anonymous": false,
      "inputs": [
        {
          "indexed": true,
          "internalType": "enum OrderType",
          "name": "orderType",
          "type": "uint8"
        },
        {
          "indexed": false,
          "internalType": "uint256",
          "name": "collateral",
          "type": "uint256"
        },
        {
          "indexed": false,
          "internalType": "address",
          "name": "token",
          "type": "address"
        },
        {
          "indexed": false,
          "internalType": "uint256",
          "name": "tokenAmount",
          "type": "uint256"
        }
      ],
      "name": "OrderCreated",
      "type": "event"
    },
    {
      "anonymous": false,
      "inputs": [
        {
          "indexed": true,
          "internalType": "bytes32",
          "name": "newBtcTxId",
          "type": "bytes32"
        }
      ],
      "name": "OrderDelayed",
      "type": "event"
    },
    {
      "anonymous": false,
      "inputs": [
        {
          "indexed": false,
          "internalType": "string",
          "name": "lenderBtcAddress",
          "type": "string"
        },
        {
          "indexed": false,
          "internalType": "uint256",
          "name": "NFTTokenId",
          "type": "uint256"
        }
      ],
      "name": "OrderTaken",
      "type": "event"
    },
    {
      "anonymous": false,
      "inputs": [
        {
          "indexed": true,
          "internalType": "address",
          "name": "previousOwner",
          "type": "address"
        },
        {
          "indexed": true,
          "internalType": "address",
          "name": "newOwner",
          "type": "address"
        }
      ],
      "name": "OwnershipTransferred",
      "type": "event"
    },
    {
      "anonymous": false,
      "inputs": [
        {
          "indexed": true,
          "internalType": "address",
          "name": "borrower",
          "type": "address"
        },
        {
          "indexed": false,
          "internalType": "uint256",
          "name": "additionalBTCRequired",
          "type": "uint256"
        }
      ],
      "name": "RenewalOrderRequested",
      "type": "event"
    },
    {
      "anonymous": false,
      "inputs": [
        {
          "indexed": false,
          "internalType": "uint256",
          "name": "interest",
          "type": "uint256"
        },
        {
          "indexed": false,
          "internalType": "uint256",
          "name": "principal",
          "type": "uint256"
        },
        {
          "indexed": false,
          "internalType": "bytes",
          "name": "btcTxData",
          "type": "bytes"
        },
        {
          "indexed": false,
          "internalType": "bytes",
          "name": "signature",
          "type": "bytes"
        }
      ],
      "name": "RepaymentMade",
      "type": "event"
    },
    {
      "anonymous": false,
      "inputs": [
        {
          "indexed": true,
          "internalType": "address",
          "name": "repayer",
          "type": "address"
        },
        {
          "indexed": true,
          "internalType": "address",
          "name": "arbitrator",
          "type": "address"
        },
        {
          "indexed": false,
          "internalType": "string",
          "name": "repayerBtcAddress",
          "type": "string"
        }
      ],
      "name": "TimeoutRepaymentMade",
      "type": "event"
    },
    {
      "inputs": [],
      "name": "averageDownPayment",
      "outputs": [
        {
          "internalType": "uint256",
          "name": "",
          "type": "uint256"
        }
      ],
      "stateMutability": "view",
      "type": "function"
    },
    {
      "inputs": [],
      "name": "borrow",
      "outputs": [],
      "stateMutability": "nonpayable",
      "type": "function"
    },
    {
      "inputs": [],
      "name": "borrowExpirationTime",
      "outputs": [
        {
          "internalType": "uint256",
          "name": "",
          "type": "uint256"
        }
      ],
      "stateMutability": "view",
      "type": "function"
    },
    {
      "inputs": [],
      "name": "borrowedTime",
      "outputs": [
        {
          "internalType": "uint256",
          "name": "",
          "type": "uint256"
        }
      ],
      "stateMutability": "view",
      "type": "function"
    },
    {
      "inputs": [],
      "name": "borrower",
      "outputs": [
        {
          "internalType": "address",
          "name": "",
          "type": "address"
        }
      ],
      "stateMutability": "view",
      "type": "function"
    },
    {
      "inputs": [],
      "name": "borrowerBtcAddress",
      "outputs": [
        {
          "internalType": "string",
          "name": "",
          "type": "string"
        }
      ],
      "stateMutability": "view",
      "type": "function"
    },
    {
      "inputs": [],
      "name": "borrowerRepaidTime",
      "outputs": [
        {
          "internalType": "uint256",
          "name": "",
          "type": "uint256"
        }
      ],
      "stateMutability": "view",
      "type": "function"
    },
    {
      "inputs": [],
      "name": "closeOrder",
      "outputs": [],
      "stateMutability": "nonpayable",
      "type": "function"
    },
    {
      "inputs": [],
      "name": "collateralAmount",
      "outputs": [
        {
          "internalType": "uint256",
          "name": "",
          "type": "uint256"
        }
      ],
      "stateMutability": "view",
      "type": "function"
    },
    {
      "inputs": [
        {
          "internalType": "address",
          "name": "_token",
          "type": "address"
        },
        {
          "internalType": "uint256",
          "name": "_amount",
          "type": "uint256"
        },
        {
          "internalType": "uint256",
          "name": "_duration",
          "type": "uint256"
        }
      ],
      "name": "createLendOrder",
      "outputs": [],
      "stateMutability": "nonpayable",
      "type": "function"
    },
    {
      "inputs": [],
      "name": "createTime",
      "outputs": [
        {
          "internalType": "uint256",
          "name": "",
          "type": "uint256"
        }
      ],
      "stateMutability": "view",
      "type": "function"
    },
    {
      "inputs": [],
      "name": "deadLinesData",
      "outputs": [
        {
          "internalType": "uint256",
          "name": "orderDeadLine",
          "type": "uint256"
        },
        {
          "internalType": "uint256",
          "name": "submitPledgeProofDeadLine",
          "type": "uint256"
        },
        {
          "internalType": "uint256",
          "name": "borrowDeadLine",
          "type": "uint256"
        },
        {
          "internalType": "uint256",
          "name": "repayDeadLine",
          "type": "uint256"
        },
        {
          "internalType": "uint256",
          "name": "submitRegularProofDeadLine",
          "type": "uint256"
        }
      ],
      "stateMutability": "view",
      "type": "function"
    },
    {
      "inputs": [],
      "name": "getRenewalCollateralAmount",
      "outputs": [
        {
          "internalType": "uint256",
          "name": "paymentAmount",
          "type": "uint256"
        },
        {
          "internalType": "uint256",
          "name": "collateral",
          "type": "uint256"
        }
      ],
      "stateMutability": "view",
      "type": "function"
    },
    {
      "inputs": [
        {
          "components": [
            {
              "internalType": "address",
              "name": "loanTools",
              "type": "address"
            },
            {
              "internalType": "address",
              "name": "taprootTools",
              "type": "address"
            },
            {
              "internalType": "address",
              "name": "getLoanTools",
              "type": "address"
            },
            {
              "internalType": "address",
              "name": "obsidianBtcAddressBinder",
              "type": "address"
            },
            {
              "internalType": "address",
              "name": "interestReceiver",
              "type": "address"
            },
            {
              "internalType": "address",
              "name": "optionInterestReceiver",
              "type": "address"
            }
          ],
          "internalType": "struct ObsidianSetAddress",
          "name": "setAddress",
          "type": "tuple"
        },
        {
          "components": [
            {
              "internalType": "uint256",
              "name": "takenExpireTime",
              "type": "uint256"
            },
            {
              "internalType": "uint256",
              "name": "submitProofExpireTime",
              "type": "uint256"
            },
            {
              "internalType": "uint256",
              "name": "repaidExpireTime",
              "type": "uint256"
            },
            {
              "internalType": "uint256",
              "name": "borrowExpirationTime",
              "type": "uint256"
            }
          ],
          "internalType": "struct ExpiredTime",
          "name": "expiredTime",
          "type": "tuple"
        },
        {
          "internalType": "uint256",
          "name": "_proofedDelayBlock",
          "type": "uint256"
        },
        {
          "internalType": "address",
          "name": "_owner",
          "type": "address"
        },
        {
          "internalType": "address",
          "name": "_lender",
          "type": "address"
        },
        {
          "internalType": "uint8",
          "name": "_orderVersion",
          "type": "uint8"
        }
      ],
      "name": "initialize",
      "outputs": [],
      "stateMutability": "nonpayable",
      "type": "function"
    },
    {
      "inputs": [],
      "name": "interestRate",
      "outputs": [
        {
          "internalType": "uint256",
          "name": "",
          "type": "uint256"
        }
      ],
      "stateMutability": "view",
      "type": "function"
    },
    {
      "inputs": [],
      "name": "interestReceiver",
      "outputs": [
        {
          "internalType": "address",
          "name": "",
          "type": "address"
        }
      ],
      "stateMutability": "view",
      "type": "function"
    },
    {
      "inputs": [],
      "name": "interestValue",
      "outputs": [
        {
          "internalType": "uint256",
          "name": "",
          "type": "uint256"
        }
      ],
      "stateMutability": "view",
      "type": "function"
    },
    {
      "inputs": [],
      "name": "latestRenewalBtcTx",
      "outputs": [
        {
          "internalType": "bytes32",
          "name": "wTxId",
          "type": "bytes32"
        },
        {
          "internalType": "bytes32",
          "name": "txId",
          "type": "bytes32"
        },
        {
          "internalType": "uint32",
          "name": "txIndex",
          "type": "uint32"
        },
        {
          "internalType": "uint256",
          "name": "proofTimestamp",
          "type": "uint256"
        },
        {
          "internalType": "uint256",
          "name": "blockHeight",
          "type": "uint256"
        },
        {
          "internalType": "uint256",
          "name": "amount",
          "type": "uint256"
        }
      ],
      "stateMutability": "view",
      "type": "function"
    },
    {
      "inputs": [],
      "name": "lender",
      "outputs": [
        {
          "internalType": "address",
          "name": "",
          "type": "address"
        }
      ],
      "stateMutability": "view",
      "type": "function"
    },
    {
      "inputs": [],
      "name": "lenderBtcAddress",
      "outputs": [
        {
          "internalType": "string",
          "name": "",
          "type": "string"
        }
      ],
      "stateMutability": "view",
      "type": "function"
    },
    {
      "inputs": [],
      "name": "limitedDays",
      "outputs": [
        {
          "internalType": "uint256",
          "name": "",
          "type": "uint256"
        }
      ],
      "stateMutability": "view",
      "type": "function"
    },
    {
      "inputs": [],
      "name": "nftTokenId",
      "outputs": [
        {
          "internalType": "uint256",
          "name": "",
          "type": "uint256"
        }
      ],
      "stateMutability": "view",
      "type": "function"
    },
    {
      "inputs": [],
      "name": "optionInterestReceiver",
      "outputs": [
        {
          "internalType": "address",
          "name": "",
          "type": "address"
        }
      ],
      "stateMutability": "view",
      "type": "function"
    },
    {
      "inputs": [],
      "name": "orderType",
      "outputs": [
        {
          "internalType": "enum OrderType",
          "name": "",
          "type": "uint8"
        }
      ],
      "stateMutability": "pure",
      "type": "function"
    },
    {
      "inputs": [],
      "name": "orderVersion",
      "outputs": [
        {
          "internalType": "uint8",
          "name": "",
          "type": "uint8"
        }
      ],
      "stateMutability": "view",
      "type": "function"
    },
    {
      "inputs": [],
      "name": "owner",
      "outputs": [
        {
          "internalType": "address",
          "name": "",
          "type": "address"
        }
      ],
      "stateMutability": "view",
      "type": "function"
    },
    {
      "inputs": [],
      "name": "proofedDelayBlock",
      "outputs": [
        {
          "internalType": "uint256",
          "name": "",
          "type": "uint256"
        }
      ],
      "stateMutability": "view",
      "type": "function"
    },
    {
      "inputs": [],
      "name": "renewalOrderRequest",
      "outputs": [],
      "stateMutability": "nonpayable",
      "type": "function"
    },
    {
      "inputs": [],
      "name": "renewalRequestCount",
      "outputs": [
        {
          "internalType": "uint256",
          "name": "",
          "type": "uint256"
        }
      ],
      "stateMutability": "view",
      "type": "function"
    },
    {
      "inputs": [],
      "name": "renewalRequestTime",
      "outputs": [
        {
          "internalType": "uint256",
          "name": "",
          "type": "uint256"
        }
      ],
      "stateMutability": "view",
      "type": "function"
    },
    {
      "inputs": [],
      "name": "renounceOwnership",
      "outputs": [],
      "stateMutability": "nonpayable",
      "type": "function"
    },
    {
      "inputs": [],
      "name": "repaidExpireTime",
      "outputs": [
        {
          "internalType": "uint256",
          "name": "",
          "type": "uint256"
        }
      ],
      "stateMutability": "view",
      "type": "function"
    },
    {
      "inputs": [
        {
          "internalType": "string",
          "name": "_borrowerBtcAddress",
          "type": "string"
        }
      ],
      "name": "repay",
      "outputs": [],
      "stateMutability": "nonpayable",
      "type": "function"
    },
    {
      "inputs": [],
      "name": "status",
      "outputs": [
        {
          "internalType": "enum OrderStatus",
          "name": "",
          "type": "uint8"
        }
      ],
      "stateMutability": "view",
      "type": "function"
    },
    {
      "inputs": [],
      "name": "submitProofExpirationTime",
      "outputs": [
        {
          "internalType": "uint256",
          "name": "",
          "type": "uint256"
        }
      ],
      "stateMutability": "view",
      "type": "function"
    },
    {
      "inputs": [
        {
          "internalType": "bytes",
          "name": "txData",
          "type": "bytes"
        },
        {
          "internalType": "uint32",
          "name": "blockHeight",
          "type": "uint32"
        },
        {
          "components": [
            {
              "internalType": "bytes32[]",
              "name": "proof",
              "type": "bytes32[]"
            },
            {
              "internalType": "bytes32",
              "name": "root",
              "type": "bytes32"
            },
            {
              "internalType": "bytes32",
              "name": "leaf",
              "type": "bytes32"
            },
            {
              "internalType": "bool[]",
              "name": "flags",
              "type": "bool[]"
            }
          ],
          "internalType": "struct MerkleProofData",
          "name": "merkleProof",
          "type": "tuple"
        }
      ],
      "name": "submitRegularUnlockTransferProof",
      "outputs": [],
      "stateMutability": "nonpayable",
      "type": "function"
    },
    {
      "inputs": [
        {
          "internalType": "string",
          "name": "borrowerBtcAddress",
          "type": "string"
        }
      ],
      "name": "confirmRepaymentFromBalance",
      "outputs": [],
      "stateMutability": "nonpayable",
      "type": "function"
    },
    {
      "inputs": [
        {
          "internalType": "bytes",
          "name": "rawData",
          "type": "bytes"
        },
        {
          "internalType": "uint32",
          "name": "blockHeight",
          "type": "uint32"
        },
        {
          "components": [
            {
              "internalType": "bytes32[]",
              "name": "proof",
              "type": "bytes32[]"
            },
            {
              "internalType": "bytes32",
              "name": "root",
              "type": "bytes32"
            },
            {
              "internalType": "bytes32",
              "name": "leaf",
              "type": "bytes32"
            },
            {
              "internalType": "bool[]",
              "name": "flags",
              "type": "bool[]"
            }
          ],
          "internalType": "struct MerkleProofData",
          "name": "merkleProof",
          "type": "tuple"
        }
      ],
      "name": "submitRenewalOrderProof",
      "outputs": [],
      "stateMutability": "nonpayable",
      "type": "function"
    },
    {
      "inputs": [
        {
          "internalType": "bytes",
          "name": "rawData",
          "type": "bytes"
        },
        {
          "internalType": "uint32",
          "name": "blockHeight",
          "type": "uint32"
        },
        {
          "components": [
            {
              "internalType": "bytes32[]",
              "name": "proof",
              "type": "bytes32[]"
            },
            {
              "internalType": "bytes32",
              "name": "root",
              "type": "bytes32"
            },
            {
              "internalType": "bytes32",
              "name": "leaf",
              "type": "bytes32"
            },
            {
              "internalType": "bool[]",
              "name": "flags",
              "type": "bool[]"
            }
          ],
          "internalType": "struct MerkleProofData",
          "name": "merkleProof",
          "type": "tuple"
        },
        {
          "internalType": "uint32",
          "name": "toLenderTxIndex",
          "type": "uint32"
        }
      ],
      "name": "submitToLenderTransferProof",
      "outputs": [],
      "stateMutability": "nonpayable",
      "type": "function"
    },
    {
      "inputs": [
        {
          "internalType": "uint256",
          "name": "_nftTokenId",
          "type": "uint256"
        }
      ],
      "name": "takeOrder",
      "outputs": [],
      "stateMutability": "nonpayable",
      "type": "function"
    },
    {
      "inputs": [],
      "name": "takenExpireTime",
      "outputs": [
        {
          "internalType": "uint256",
          "name": "",
          "type": "uint256"
        }
      ],
      "stateMutability": "view",
      "type": "function"
    },
    {
      "inputs": [],
      "name": "takenTime",
      "outputs": [
        {
          "internalType": "uint256",
          "name": "",
          "type": "uint256"
        }
      ],
      "stateMutability": "view",
      "type": "function"
    },
    {
      "inputs": [
        {
          "internalType": "string",
          "name": "payerBtcAddress",
          "type": "string"
        }
      ],
      "name": "timeoutRepay",
      "outputs": [],
      "stateMutability": "nonpayable",
      "type": "function"
    },
    {
      "inputs": [],
      "name": "timeoutRepayTime",
      "outputs": [
        {
          "internalType": "uint256",
          "name": "",
          "type": "uint256"
        }
      ],
      "stateMutability": "view",
      "type": "function"
    },
    {
      "inputs": [],
      "name": "timeoutRepayer",
      "outputs": [
        {
          "internalType": "address",
          "name": "",
          "type": "address"
        }
      ],
      "stateMutability": "view",
      "type": "function"
    },
    {
      "inputs": [],
      "name": "timeoutRepayerBtcAddress",
      "outputs": [
        {
          "internalType": "string",
          "name": "",
          "type": "string"
        }
      ],
      "stateMutability": "view",
      "type": "function"
    },
    {
      "inputs": [],
      "name": "toBorrowerBtcTx",
      "outputs": [
        {
          "internalType": "bytes32",
          "name": "wTxId",
          "type": "bytes32"
        },
        {
          "internalType": "bytes32",
          "name": "txId",
          "type": "bytes32"
        },
        {
          "internalType": "uint32",
          "name": "txIndex",
          "type": "uint32"
        },
        {
          "internalType": "uint256",
          "name": "proofTimestamp",
          "type": "uint256"
        },
        {
          "internalType": "uint256",
          "name": "blockHeight",
          "type": "uint256"
        },
        {
          "internalType": "uint256",
          "name": "amount",
          "type": "uint256"
        }
      ],
      "stateMutability": "view",
      "type": "function"
    },
    {
      "inputs": [],
      "name": "toLenderBtcTx",
      "outputs": [
        {
          "internalType": "bytes32",
          "name": "wTxId",
          "type": "bytes32"
        },
        {
          "internalType": "bytes32",
          "name": "txId",
          "type": "bytes32"
        },
        {
          "internalType": "uint32",
          "name": "txIndex",
          "type": "uint32"
        },
        {
          "internalType": "uint256",
          "name": "proofTimestamp",
          "type": "uint256"
        },
        {
          "internalType": "uint256",
          "name": "blockHeight",
          "type": "uint256"
        },
        {
          "internalType": "uint256",
          "name": "amount",
          "type": "uint256"
        }
      ],
      "stateMutability": "view",
      "type": "function"
    },
    {
      "inputs": [],
      "name": "token",
      "outputs": [
        {
          "internalType": "address",
          "name": "",
          "type": "address"
        }
      ],
      "stateMutability": "view",
      "type": "function"
    },
    {
      "inputs": [],
      "name": "tokenAmount",
      "outputs": [
        {
          "internalType": "uint256",
          "name": "",
          "type": "uint256"
        }
      ],
      "stateMutability": "view",
      "type": "function"
    },
    {
      "inputs": [],
      "name": "totalRenewalAmount",
      "outputs": [
        {
          "internalType": "uint256",
          "name": "",
          "type": "uint256"
        }
      ],
      "stateMutability": "view",
      "type": "function"
    },
    {
      "inputs": [
        {
          "internalType": "address",
          "name": "newOwner",
          "type": "address"
        }
      ],
      "name": "transferOwnership",
      "outputs": [],
      "stateMutability": "nonpayable",
      "type": "function"
    }
  ],
  "bytecode": "0x60806040523480156200001157600080fd5b507ff0c57e16840df040f15088dc2f81fe391c3923bec73e23a9662efc9c229c6a00805468010000000000000000810460ff1615906001600160401b03166000811580156200005d5750825b90506000826001600160401b031660011480156200007a5750303b155b90508115801562000089575080155b15620000a85760405163f92ee8a960e01b815260040160405180910390fd5b84546001600160401b03191660011785558315620000d757845460ff60401b1916680100000000000000001785555b83156200011e57845460ff60401b19168555604051600181527fc7f505b2f371ae2175ee4913f4499e1f2633a7b5936321eed1cdaeb6115181d29060200160405180910390a15b50505050506132c880620001336000396000f3fe608060405234801561001057600080fd5b50600436106102f15760003560e01c80637df1f1b91161019d578063c6f6c0b7116100e9578063dd106890116100a2578063eec7faa11161007c578063eec7faa11461067c578063f2fde38b14610685578063fc0c546a14610698578063fdf0f7ac146106ab57600080fd5b8063dd10689014610647578063e43b42581461066b578063e68d35691461067457600080fd5b8063c6f6c0b7146105ba578063c752c3de146105c3578063c77cf61514610605578063c7e24e2814610618578063cfe805921461062b578063d6edec911461063457600080fd5b806395aa558111610156578063b005e27111610130578063b005e27114610567578063bb10b0e71461057a578063bcead63e1461059e578063c3c67648146105b157600080fd5b806395aa5581146104e5578063a51bafb7146104ee578063afacfbdf1461054a57600080fd5b80637df1f1b91461047f5780637e8305741461049257806387a9796b1461049b5780638cacd2a8146104a45780638da5cb5b146104ac57806392d09ceb146104dc57600080fd5b80634ece54c71161025c5780636a467ef611610215578063715018a6116101ef578063715018a61461045c57806379ddeee1146104645780637b29dab81461046d5780637c3a00fd1461047657600080fd5b80636a467ef61461041a5780636ae5d110146104455780636f17591f1461044d57600080fd5b80634ece54c7146103d1578063554730fd146103e4578063572a15a2146103ed5780635e145ca6146103f657806361dcd7ab1461040957806368a8da1c1461041257600080fd5b806317ff940d116102ae57806317ff940d14610377578063200d2ed2146103805780632d8dcef11461039a5780633b5d1a24146103a25780633f1c2135146103b557806343358d33146103c857600080fd5b806301e2abd5146102f65780630223fbef1461031a57806307dbd942146103315780631159042c14610346578063124520bd1461035b57806314719e7b14610364575b600080fd5b6039546103039060ff1681565b60405160ff90911681526020015b60405180910390f35b61032360365481565b604051908152602001610311565b61034461033f36600461273c565b6106b4565b005b61034e6108a5565b604051610311919061281a565b61032360085481565b61034461037236600461282d565b610933565b61032360295481565b60355461038d9060ff1681565b6040516103119190612899565b610344610aa6565b6103446103b03660046128a7565b610aeb565b6103446103c336600461282d565b610c2c565b610323601d5481565b6103446103df3660046128d7565b610db7565b610323602b5481565b610323602c5481565b61034461040436600461295c565b61112a565b61032360275481565b61034e6113ed565b60055461042d906001600160a01b031681565b6040516001600160a01b039091168152602001610311565b61034e6113fa565b600260405161031191906129d9565b610344611407565b610323600a5481565b610323602f5481565b61032360095481565b600d5461042d906001600160a01b031681565b610323600e5481565b610323602d5481565b610344611419565b7f9016d09d72d40fdae2fd8ceac6b6234c7706214fd39c1cd1e609a0528c199300546001600160a01b031661042d565b610323600b5481565b610323602e5481565b601754601854601954601a54601b54601c5461051295949363ffffffff1692919086565b60408051968752602087019590955263ffffffff909316938501939093526060840152608083019190915260a082015260c001610311565b610552611532565b60408051928352602083019190915201610311565b60245461042d906001600160a01b031681565b60115460125460135460145460155460165461051295949363ffffffff1692919086565b600c5461042d906001600160a01b031681565b61032360385481565b61032360265481565b6030546031546032546033546034546105dd949392919085565b604080519586526020860194909452928401919091526060830152608082015260a001610311565b60045461042d906001600160a01b031681565b6103446106263660046129f3565b6115d3565b61032360285481565b610344610642366004612a7a565b611887565b601e54601f5460205460215460225460235461051295949363ffffffff1692919086565b61032360375481565b610344611a93565b61032360075481565b610344610693366004612aad565b611ace565b60065461042d906001600160a01b031681565b610323602a5481565b6106bc611b09565b600d546106d1906001600160a01b0316611b53565b600160355460ff16600b8111156106ea576106ea61286f565b1461070857604051636a36b1a560e01b815260040160405180910390fd5b603154421061072a57604051632eaa785b60e01b815260040160405180910390fd5b6107378260400135611c03565b600154600b546040516331fd1ac160e21b815260009283926001600160a01b039091169163c7f46b0491610779918b918b91600f91908c908c90600401612ca9565b6040805180830381865afa158015610795573d6000803e3d6000fd5b505050506040513d601f19601f820116820180604052508101906107b99190612d02565b915091506107ca8460400135611cb2565b610843600060408601356107dd84611d1c565b6040805160c0810182528481526020810184905263ffffffff9283169181018290524260608201819052928b166080820181905260a09091018890526011949094556012929092556013805463ffffffff19169092179091556014556015556016839055565b6035805460ff191660029081179091556040517f5739b04fe1a57fa18d64b66dc2dfeedf3f42e80b1f6513a1abc0254fee2b44d19161088491859190612d26565b60405180910390a1610894611d47565b505061089e611e26565b5050505050565b600f80546108b290612af1565b80601f01602080910402602001604051908101604052809291908181526020018280546108de90612af1565b801561092b5780601f106109005761010080835404028352916020019161092b565b820191906000526020600020905b81548152906001019060200180831161090e57829003601f168201915b505050505081565b61093b611b09565b600081900361095d576040516371189f3b60e11b815260040160405180910390fd5b600460355460ff16600b8111156109765761097661286f565b1461099457604051636a36b1a560e01b815260040160405180910390fd5b6033544210156109b757604051637c18a17760e11b815260040160405180910390fd5b6109c033611e4c565b602480546001600160a01b0319163317905560256109df828483612d9e565b50426026556035805460ff1916600a1790556000805460405163b60264a560e01b81526001600160a01b039091169163b60264a591610a2991309133919088908890600401612e5e565b600060405180830381600087803b158015610a4357600080fd5b505af1158015610a57573d6000803e3d6000fd5b5050604051600092503391507ff51a16e1c5dbce18f7929e2557aa1c5fbbfd99c3c6e7474e896d0acbed9bd85290610a929086908690612ec2565b60405180910390a3610aa2611e26565b5050565b610aae611b09565b600c546001600160a01b03163314610ad957604051633415a7ed60e21b815260040160405180910390fd5b610ae1611e75565b610ae9611e26565b565b610af3611b09565b600060355460ff16600b811115610b0c57610b0c61286f565b14610b2a57604051636a36b1a560e01b815260040160405180910390fd5b600354604051631125ae3960e11b8152336004820152602481018390526000916001600160a01b03169063224b5c72906044016000604051808303816000875af1158015610b7c573d6000803e3d6000fd5b505050506040513d6000823e601f3d908101601f19168201604052610ba49190810190612ede565b600d80546001600160a01b03191633179055600e8390559050600f610bc98282612f8b565b5042602855610bd6611ed9565b6035805460ff19166001179055600e546040517f38deca0f7b952ea7d681d61da9f304e464db0b6d92cda6601e488645e1c713f991610c1891600f919061304b565b60405180910390a150610c29611e26565b50565b610c34611b09565b6000819003610c56576040516371189f3b60e11b815260040160405180910390fd5b600d546001600160a01b03163314610c8157604051630ac9915d60e01b815260040160405180910390fd5b600460355460ff16600b811115610c9a57610c9a61286f565b14610cb857604051636a36b1a560e01b815260040160405180910390fd5b6033544210610cda57604051632eaa785b60e01b815260040160405180910390fd5b6010610ce7828483612d9e565b5042602a556035805460ff19166005179055610d0233611e4c565b600054600c5460405163afa2943b60e01b81526001600160a01b039283169263afa2943b92610d3d923092909116908790879060040161306d565b600060405180830381600087803b158015610d5757600080fd5b505af1158015610d6b573d6000803e3d6000fd5b5050600a546007546040517f6d35bc2de41396ad0cbb7da31c6830eeafb04da7878d362d324c6ba15233ba989450610da79350869086906130c8565b60405180910390a1610aa2611e26565b7ff0c57e16840df040f15088dc2f81fe391c3923bec73e23a9662efc9c229c6a008054600160401b810460ff16159067ffffffffffffffff16600081158015610dfd5750825b905060008267ffffffffffffffff166001148015610e1a5750303b155b905081158015610e28575080155b15610e465760405163f92ee8a960e01b815260040160405180910390fd5b845467ffffffffffffffff191660011785558315610e7057845460ff60401b1916600160401b1785555b6000610e7f60208d018d612aad565b6001600160a01b03161480610eac57506000610ea160408d0160208e01612aad565b6001600160a01b0316145b80610ecf57506000610ec460608d0160408e01612aad565b6001600160a01b0316145b80610ef257506000610ee760808d0160608e01612aad565b6001600160a01b0316145b80610f1557506000610f0a60a08d0160808e01612aad565b6001600160a01b0316145b80610f2757506001600160a01b038716155b15610f4557604051630e52390960e41b815260040160405180910390fd5b8560ff16600003610f695760405163a9146eeb60e01b815260040160405180910390fd5b610f7288611f06565b610f7a611f17565b610f8760208c018c612aad565b600080546001600160a01b0319166001600160a01b0392909216919091179055610fb760408c0160208d01612aad565b600180546001600160a01b0319166001600160a01b0392909216919091179055610fe760608c0160408d01612aad565b600280546001600160a01b0319166001600160a01b039290921691909117905561101760808c0160608d01612aad565b600380546001600160a01b0319166001600160a01b039290921691909117905561104760a08c0160808d01612aad565b600480546001600160a01b0319166001600160a01b039290921691909117905561107760c08c0160a08d01612aad565b600580546001600160a01b03199081166001600160a01b03938416179091558b35602b5560208c0135602c5560408c0135602d5560608c0135602e55602f8b9055600c80549091169189169190911790556039805460ff191660ff8816179055831561111d57845460ff60401b19168555604051600181527fc7f505b2f371ae2175ee4913f4499e1f2633a7b5936321eed1cdaeb6115181d29060200160405180910390a15b5050505050505050505050565b611132611b09565b600c54611147906001600160a01b0316611b53565b600560355460ff16600b8111156111605761116061286f565b141580156111855750600a60355460ff16600b8111156111825761118261286f565b14155b156111a357604051636a36b1a560e01b815260040160405180910390fd5b6000600a60355460ff16600b8111156111be576111be61286f565b1490506000816111cf5760106111d2565b60255b80546111dd90612af1565b80601f016020809104026020016040519081016040528092919081815260200182805461120990612af1565b80156112565780601f1061122b57610100808354040283529160200191611256565b820191906000526020600020905b81548152906001019060200180831161123957829003601f168201915b505060015460125460405163298dc4a560e21b81529596506000958695508594506001600160a01b03909216925063a6371294916112a3918d918d91908a9088908f908f90600401613104565b606060405180830381865afa1580156112c0573d6000803e3d6000fd5b505050506040513d601f19601f820116820180604052508101906112e49190613164565b9250925092506112f78660400135611c03565b6113048660400135611cb2565b6040518060c001604052808481526020018760400135815260200161132883611d1c565b63ffffffff9081168252426020808401919091528a821660408085019190915260609384018790528451601e5584820151601f5584810151825463ffffffff1916931692909217905590820151602155608082015160225560a09091015160235560358054600660ff19909116811790915590517f09500c0538cf810aa5932e18765c3383ff1f747afc5c6b72e6ae1bc9737c2db9916113ca91869190612d26565b60405180910390a16113da611e75565b50505050506113e7611e26565b50505050565b602580546108b290612af1565b601080546108b290612af1565b61140f611f27565b610ae96000611f82565b611421611b09565b600d546001600160a01b0316331461144c57604051630ac9915d60e01b815260040160405180910390fd5b600460355460ff16600b8111156114655761146561286f565b1461148357604051636a36b1a560e01b815260040160405180910390fd5b60335442106114a557604051632eaa785b60e01b815260040160405180910390fd5b6114ad611532565b506038556114b9611ff3565b6035805460ff1916600b1790554260365560378054600191906000906114e09084906131a8565b9091555050600d546038546040519081526001600160a01b03909116907f961677491955ee3163cc60b7a26aeadb28bfdac6da2db92bce8b05ee866353239060200160405180910390a2610ae9611e26565b600154600b54600754600654604051633a35338b60e11b8152600481019390935260248301919091526001600160a01b039081166044830152600092839291169063746a671690606401602060405180830381865afa158015611599573d6000803e3d6000fd5b505050506040513d601f19601f820116820180604052508101906115bd91906131bb565b915081600b546115cd91906131a8565b90509091565b6115db611b09565b600c546115f0906001600160a01b0316611b53565b600b60355460ff16600b8111156116095761160961286f565b1461162757604051636a36b1a560e01b815260040160405180910390fd5b600b5485101561166e5760405162461bcd60e51b815260206004820152600d60248201526c125b9d985b1a59105b5bdd5b9d609a1b60448201526064015b60405180910390fd5b600b5461167b90866131d4565b60385411156116cc5760405162461bcd60e51b815260206004820152601960248201527f496e76616c696441766572616765446f776e5061796d656e74000000000000006044820152606401611665565b600b546116d990866131d4565b603855600b54851115611871576116f38160400135611c03565b6001546038546040516331fd1ac160e21b815260009283926001600160a01b039091169163c7f46b0491611735918a918a91600f91908b908b90600401612ca9565b6040805180830381865afa158015611751573d6000803e3d6000fd5b505050506040513d601f19601f820116820180604052508101906117759190612d02565b915091506117868360400135611cb2565b6040805160c081018252600081528482013560208201529081016117a983611d1c565b63ffffffff90811682524260208084019190915287821660408085019190915260609384018790528451601755908401516018558301516019805463ffffffff191691909216179055810151601a556080810151601b5560a00151601c55601d805483919060009061181c9084906131a8565b9091555050603754601d5460408051908601359130917f80b7898c54a428944afba9a71a2c77dc1df61105c4abe02703769e17e79cecea9161186691339189918c90600f906131e7565b60405180910390a450505b61187f858260400135612043565b61089e611e26565b61188f611b09565b6001600160a01b03831615806118a3575081155b806118ac575080155b156118ca57604051630e52390960e41b815260040160405180910390fd5b6006546001600160a01b0316156118f457604051631ac1050b60e21b815260040160405180910390fd5b60008054604051635903513760e11b8152600481018490526001600160a01b038681166024830152604482018690528392839291169063b206a26e90606401606060405180830381865afa158015611950573d6000803e3d6000fd5b505050506040513d601f19601f820116820180604052508101906119749190613164565b600054604051630a60aebf60e11b81526004810183905293965091945092506001600160a01b0316906314c15d7e9060240160006040518083038186803b1580156119be57600080fd5b505afa1580156119d2573d6000803e3d6000fd5b505050506119f9333084886119e791906131a8565b6001600160a01b038a1692919061212d565b600680546001600160a01b0388166001600160a01b03199091168117909155600786905560088590556009849055600a839055600b829055426027556035805460ff1916905560408051838152602081019290925281018690526002907f4cca9f8b5bfe3be61cada803dab2ecaf9621004497e0e4f8542fd72332fa148d9060600160405180910390a2505050611a8e611e26565b505050565b611a9b611b09565b600d546001600160a01b03163314611ac657604051630ac9915d60e01b815260040160405180910390fd5b610ae1611d47565b611ad6611f27565b6001600160a01b038116611b0057604051631e4fbdf760e01b815260006004820152602401611665565b610c2981611f82565b7f9b779b17422d0df92223018b32b4d1fa46e071723d6817e2486d003becc55f00805460011901611b4d57604051633ee5aeb560e01b815260040160405180910390fd5b60029055565b6001600160a01b0381163303611b665750565b600254604051632a49bf6f60e21b81523360048201526001600160a01b039091169063a926fdbc90602401602060405180830381865afa158015611bae573d6000803e3d6000fd5b505050506040513d601f19601f82011682018060405250810190611bd29190613220565b610c295760405162461bcd60e51b815260206004820152600260248201526104e560f41b6044820152606401611665565b600354604051637df46cfd60e11b8152600481018390526001600160a01b039091169063fbe8d9fa90602401602060405180830381865afa158015611c4c573d6000803e3d6000fd5b505050506040513d601f19601f82011682018060405250810190611c709190613220565b15610c295760405162461bcd60e51b815260206004820152601260248201527110dbdb1b185d195c985b151e1259155cd95960721b6044820152606401611665565b600354600e546040516306a19c6960e11b81526001600160a01b0390921691630d4338d291611cee918590600401918252602082015260400190565b600060405180830381600087803b158015611d0857600080fd5b505af115801561089e573d6000803e3d6000fd5b600063ffffffff821115611d4357604051630e52390960e41b815260040160405180910390fd5b5090565b600260355460ff16600b811115611d6057611d6061286f565b14611d7e57604051636a36b1a560e01b815260040160405180910390fd5b6032544210611da057604051632eaa785b60e01b815260040160405180910390fd5b426029556035805460ff19166004179055600d54600754600654611dd2926001600160a01b0391821692911690612194565b600a5415611dfb57600454600a54600654611dfb926001600160a01b0391821692911690612194565b6040517fef5b63c9066d00c840194ed045ca94a0b7f736f9b7439f7eb2d90efe7a482ccc90600090a1565b60017f9b779b17422d0df92223018b32b4d1fa46e071723d6817e2486d003becc55f0055565b610c298130600a54600754611e6191906131a8565b6006546001600160a01b031692919061212d565b600960355460ff16600b811115611e8e57611e8e61286f565b03611eac57604051639008e5eb60e01b815260040160405180910390fd5b611eb46121c5565b611ed157604051630552dd2d60e21b815260040160405180910390fd5b610ae961226e565b611ee161231e565b6030819055603381905560318190556032819055602d54611f01916131a8565b603455565b611f0e61238e565b610c29816123d7565b611f1f61238e565b610ae96123df565b33611f597f9016d09d72d40fdae2fd8ceac6b6234c7706214fd39c1cd1e609a0528c199300546001600160a01b031690565b6001600160a01b031614610ae95760405163118cdaa760e01b8152336004820152602401611665565b7f9016d09d72d40fdae2fd8ceac6b6234c7706214fd39c1cd1e609a0528c19930080546001600160a01b031981166001600160a01b03848116918217845560405192169182907f8be0079c531659141344cd1fd0a4f28419497f9722a3daafe3b4186f6b6457e090600090a3505050565b600a54600003611fff57565b600d54600a54600654612022926001600160a01b0391821692911690309061212d565b600454600a54600654610ae9926001600160a01b0391821692911690612194565b600b60355460ff16600b81111561205c5761205c61286f565b1461207a57604051636a36b1a560e01b815260040160405180910390fd5b8160000361209b57604051630e52390960e41b815260040160405180910390fd5b60006120a56123e7565b9050600b5483116120b75760006120c4565b600b546120c490846131d4565b6038556030819055603381905560318190556032819055602d546120e890826131a8565b603455600b8390556035805460ff1916600417905560405182907fa7ab7cf9b27c0c1d6f3d181a70c03758aef08ba63ce3c83d712185fd6c9b298f90600090a2505050565b6040516001600160a01b0384811660248301528381166044830152606482018390526113e79186918216906323b872dd906084015b604051602081830303815290604052915060e01b6020820180516001600160e01b038381831617835250505050612410565b6040516001600160a01b03838116602483015260448201839052611a8e91859182169063a9059cbb90606401612162565b60008060355460ff16600b8111156121df576121df61286f565b036121f657506006546001600160a01b0316151590565b600160355460ff16600b81111561220f5761220f61286f565b0361221d5750603154421190565b600260355460ff16600b8111156122365761223661286f565b036122445750603254421190565b600660355460ff16600b81111561225d5761225d61286f565b036122685750600190565b50600090565b6035805460ff19166009179055600e54156122eb57600354600e546040516337bdc99b60e01b81526001600160a01b03909216916337bdc99b916122b89160040190815260200190565b600060405180830381600087803b1580156122d257600080fd5b505af11580156122e6573d6000803e3d6000fd5b505050505b6122f3612473565b6040517f2fec94b9646181c186efa814578384c5b668c18e19a11094e5bcf60f7cc75e0190600090a1565b60008061232e6008546000612505565b905060008060285411156123655760285461234883612568565b61235291906131a8565b61235e90610ed86131a8565b9050612388565b4261236f83612568565b61237991906131a8565b612385906113886131a8565b90505b92915050565b7ff0c57e16840df040f15088dc2f81fe391c3923bec73e23a9662efc9c229c6a0054600160401b900460ff16610ae957604051631afcd79f60e31b815260040160405180910390fd5b611ad661238e565b611e2661238e565b60006123fe6123f96008546000612505565b612568565b60335461240b91906131a8565b905090565b60006124256001600160a01b038416836125bb565b9050805160001415801561244a5750808060200190518101906124489190613220565b155b15611a8e57604051635274afe760e01b81526001600160a01b0384166004820152602401611665565b6006546040516370a0823160e01b81523060048201526000916001600160a01b0316906370a0823190602401602060405180830381865afa1580156124bc573d6000803e3d6000fd5b505050506040513d601f19601f820116820180604052508101906124e091906131bb565b90508015610c2957600c54600654610c29916001600160a01b03918216911683612194565b6000806102008361251886610e1061323d565b61252390601861323d565b61252d91906131a8565b6125379190613254565b905062010000811061255c5760405163dbf20b4b60e01b815260040160405180910390fd5b62400000179392505050565b60006240000082811682036125a45760405162461bcd60e51b8152602060048201526002602482015261495360f01b6044820152606401611665565b6125b461ffff841661020061323d565b9392505050565b60606123858383600084600080856001600160a01b031684866040516125e19190613276565b60006040518083038185875af1925050503d806000811461261e576040519150601f19603f3d011682016040523d82523d6000602084013e612623565b606091505b509150915061263386838361263d565b9695505050505050565b6060826126525761264d82612699565b6125b4565b815115801561266957506001600160a01b0384163b155b1561269257604051639996b31560e01b81526001600160a01b0385166004820152602401611665565b50806125b4565b8051156126a95780518082602001fd5b604051630a12f52160e11b815260040160405180910390fd5b60008083601f8401126126d457600080fd5b50813567ffffffffffffffff8111156126ec57600080fd5b60208301915083602082850101111561270457600080fd5b9250929050565b803563ffffffff8116811461271f57600080fd5b919050565b60006080828403121561273657600080fd5b50919050565b60008060008060006080868803121561275457600080fd5b853567ffffffffffffffff8082111561276c57600080fd5b61277889838a016126c2565b909750955085915061278c6020890161270b565b945060408801359150808211156127a257600080fd5b506127af88828901612724565b9250506127be6060870161270b565b90509295509295909350565b60005b838110156127e55781810151838201526020016127cd565b50506000910152565b600081518084526128068160208601602086016127ca565b601f01601f19169290920160200192915050565b60208152600061238560208301846127ee565b6000806020838503121561284057600080fd5b823567ffffffffffffffff81111561285757600080fd5b612863858286016126c2565b90969095509350505050565b634e487b7160e01b600052602160045260246000fd5b600c81106128955761289561286f565b9052565b602081016123888284612885565b6000602082840312156128b957600080fd5b5035919050565b80356001600160a01b038116811461271f57600080fd5b6000806000806000808688036101c08112156128f257600080fd5b60c081121561290057600080fd5b508695506129118860c08901612724565b9450610140870135935061292861016088016128c0565b925061293761018088016128c0565b91506101a087013560ff8116811461294e57600080fd5b809150509295509295509295565b6000806000806060858703121561297257600080fd5b843567ffffffffffffffff8082111561298a57600080fd5b612996888389016126c2565b90965094508491506129aa6020880161270b565b935060408701359150808211156129c057600080fd5b506129cd87828801612724565b91505092959194509250565b60208101600383106129ed576129ed61286f565b91905290565b600080600080600060808688031215612a0b57600080fd5b85359450602086013567ffffffffffffffff80821115612a2a57600080fd5b612a3689838a016126c2565b9096509450849150612a4a6040890161270b565b93506060880135915080821115612a6057600080fd5b50612a6d88828901612724565b9150509295509295909350565b600080600060608486031215612a8f57600080fd5b612a98846128c0565b95602085013595506040909401359392505050565b600060208284031215612abf57600080fd5b612385826128c0565b81835281816020850137506000828201602090810191909152601f909101601f19169091010190565b600181811c90821680612b0557607f821691505b60208210810361273657634e487b7160e01b600052602260045260246000fd5b60008154612b3281612af1565b808552602060018381168015612b4f5760018114612b6957612b97565b60ff1985168884015283151560051b880183019550612b97565b866000528260002060005b85811015612b8f5781548a8201860152908301908401612b74565b890184019650505b505050505092915050565b6000808335601e19843603018112612bb957600080fd5b830160208101925035905067ffffffffffffffff811115612bd957600080fd5b8060051b360382131561270457600080fd5b8015158114610c2957600080fd5b6000612c058283612ba2565b608080865285018190526001600160fb1b03811115612c2357600080fd5b60051b808260a087013780850191505060a081016020808501358187015260408501356040870152612c586060860186612ba2565b87850360a00160608901529283905292600092849160c0015b81851015612c9d5785359250612c8683612beb565b821515815294830194600194909401938301612c71565b98975050505050505050565b60a081526000612cbd60a08301888a612ac8565b8281036020840152612ccf8188612b25565b905085604084015263ffffffff851660608401528281036080840152612cf58185612bf9565b9998505050505050505050565b60008060408385031215612d1557600080fd5b505080516020909101519092909150565b828152604081016125b46020830184612885565b634e487b7160e01b600052604160045260246000fd5b601f821115611a8e57600081815260208120601f850160051c81016020861015612d775750805b601f850160051c820191505b81811015612d9657828155600101612d83565b505050505050565b67ffffffffffffffff831115612db657612db6612d3a565b612dca83612dc48354612af1565b83612d50565b6000601f841160018114612dfe5760008515612de65750838201355b600019600387901b1c1916600186901b17835561089e565b600083815260209020601f19861690835b82811015612e2f5786850135825560209485019460019092019101612e0f565b5086821015612e4c5760001960f88860031b161c19848701351681555b505060018560011b0183555050505050565b6001600160a01b03868116825285811660208301528416604082015260c060608201819052600090612e939083018486612ac8565b828103806080850152600082526020810160a08501525060006020820152604081019150509695505050505050565b602081526000612ed6602083018486612ac8565b949350505050565b600060208284031215612ef057600080fd5b815167ffffffffffffffff80821115612f0857600080fd5b818401915084601f830112612f1c57600080fd5b815181811115612f2e57612f2e612d3a565b604051601f8201601f19908116603f01168101908382118183101715612f5657612f56612d3a565b81604052828152876020848701011115612f6f57600080fd5b612f808360208301602088016127ca565b979650505050505050565b815167ffffffffffffffff811115612fa557612fa5612d3a565b612fb981612fb38454612af1565b84612d50565b602080601f831160018114612fee5760008415612fd65750858301515b600019600386901b1c1916600185901b178555612d96565b600085815260208120601f198616915b8281101561301d57888601518255948401946001909101908401612ffe565b508582101561303b5787850151600019600388901b60f8161c191681555b5050505050600190811b01905550565b60408152600061305e6040830185612b25565b90508260208301529392505050565b6001600160a01b0385811682528416602082015260a06040820181905260009061309a9083018486612ac8565b8281038060608501526000825260208101608085015250600060208201526040810191505095945050505050565b8481528360208201526080604082015260006130e8608083018486612ac8565b8281036060840152600081526020810191505095945050505050565b60c08152600061311860c08301898b612ac8565b876020840152828103604084015261313081886127ee565b905085606084015263ffffffff8516608084015282810360a08401526131568185612bf9565b9a9950505050505050505050565b60008060006060848603121561317957600080fd5b8351925060208401519150604084015190509250925092565b634e487b7160e01b600052601160045260246000fd5b8082018082111561238857612388613192565b6000602082840312156131cd57600080fd5b5051919050565b8181038181111561238857612388613192565b60018060a01b038616815284602082015283604082015263ffffffff8316606082015260a060808201526000612f8060a0830184612b25565b60006020828403121561323257600080fd5b81516125b481612beb565b808202811582820484141761238857612388613192565b60008261327157634e487b7160e01b600052601260045260246000fd5b500490565b600082516132888184602087016127ca565b919091019291505056fea26469706673582212206d2703a7270a6c647719a3f4186438feca4943287f2365873f2389c74a9daab964736f6c63430008140033",
  "linkReferences": {},
  "deployedLinkReferences": {}
}